:020000021000EC
:108000000040002005FA010041FA010043FA010096
:108010000000000000000000000000000000000060
:1080200000000000000000000000000045FA010010
:10803000000000000000000047FA010049FA0100BA
:108040004BFA010061B40100A90402004BFA0100DF
:108050004BFA01000000000005FB01004BFA010093
:108060004BFA010081060200E50002004BFA010014
:108070004BFA01004BFA01004BFA01004BFA0100E8
:108080004BFA01004BFA01004BFA01004BFA0100D8
:108090004BFA010025ED010001ED01004BFA010052
:1080A0004BFA01004BFA0100000000000000000044
:1080B00000000000000000000000000000000000C0
:1080C00010B5064C2378002B07D1054B002B02D0AE
:1080D000044800E000BF0123237010BDB820002039
:1080E00000000000BC8B0200044B10B5002B03D035
:1080F0000349044800E000BF10BDC0460000000076
:10810000BC200020BC8B0200164B002B00D1144B6E
:108110009D46402292029A1A924600218B460F46B3
:108120001348144A121A0FF0A8FC0F4B002B00D072
:1081300098470E4B002B00D09847002000210400E8
:108140000D000D48002802D00C4800E000BF0BF0E5
:1081500049FD200029000FF08DFA0BF02DFDC046DF
:1081600000000800004000200000000000000000A7
:10817000B02000205C28002000000000000000006B
:10818000F0B5CC6885B0237805000091802B3ED1F6
:10819000A278012A17D160782A680001E378F930C3
:1081A000FF3010185A1E632A09D80A21594303F0D8
:1081B0001DF86378ED18012353352B7009E0002179
:1081C00002F0A8FFF5E7022A05D16378C5185335F8
:1081D0002A7005B0F0BD032AFBD160782B6800013E
:1081E000E178F930FF3018184B1EDBB2B32B09D8F9
:1081F000FA222D4BD20003F08BF86378ED1853353B
:108200000323DAE7FA22284BD2000021F3E7812B7F
:1082100029D1009B611C1A8902A8013A12B201F00F
:108220000FFBA86802F094FB029BAC6802229B5EE5
:1082300002A903A8012B0DDD0CF0B7FC782203A9DD
:10824000200002F0B3FC03A80CF058FC02A80CF0CC
:1082500055FCBEE70CF0A9FCC82203A9520020007F
:1082600002F03EFCEFE7822BB3D1806802F070FB96
:108270000126009B1B899E42ABDA0027731E1BB2AE
:108280000193A35D01223B41A86813405B4239B2D0
:10829000DBB27430019A013701F040FB052FF0D1B9
:1082A0000136F6B2E5E7C046DC050000F0B5040093
:1082B00085B001930AAB1E880BAB1B78451C02935B
:1082C0000EAB1B78170003930B78102203704B8AB8
:1082D0000131438228000FF0B4FB268300260122DF
:1082E000019B67616383039BE6832377029B2000E6
:1082F000EB77A31CDA770C9B0C25636223000D9AA5
:1083000028331A705E709E702A0031002C300FF0F6
:10831000B4FB2000064BE663A3632A003100403023
:108320000FF0ABFB2000034B2665E36405B0F0BD06
:108330000F45020001450200F7B5861CF38F0200CD
:108340005BBA8382031DDB8F04005BBAC382030028
:108350004E32128852331B78028302002700250018
:10836000503212885637037742830CF06FF93B780E
:108370005335637723015B4201932B78022B12D193
:10838000019A12492B015018C0182368181802F0DE
:1083900053FF64234343D8178005800DC0182B007A
:1083A0008012353B18700135AF42E6D123004C33C3
:1083B0001B88F37760680EF036F822000368A18FFF
:1083C00014325C691423A047F7BDC046C8FCFFFF08
:1083D00082B0F0B5070085B0C0680A920B930CF02C
:1083E0000BFE0500F8680CF00EFE0400F8680CF0B7
:1083F00011FE2B0022006B43624340439B18181868
:108400000BF092F80BF0D0F90022364B0AF036FA56
:10841000354B00220AF032FA0BF050F8BE1C0390E4
:108420003E23F05E0BF080F8304A314B0AF026FA1A
:108430000090019128000BF077F82E4A2E4B0AF09D
:108440001DFA02000B000098019909F0ABFB0BF03C
:1084500035F83B1DF0873E20185E0BF065F8234A87
:10846000234B0AF00BFA050020000E000BF05CF81D
:10847000204A214B0AF002FA02000B0028003100CA
:1084800009F090FB0BF01AF83B1DD8877B6C039A20
:1084900000939C1AE317E4185C401000BC640BF0D6
:1084A00043F8144A144B0AF0E9F9050000980E004D
:1084B0000BF03AF80D4A0E4B0AF0E0F902000B00FF
:1084C0002800310009F06EFB0AF0F8FF78640F2CE9
:1084D00002DD38000CF0D7F805B0F0BC08BC02B0E3
:1084E0001847C0460000503F000059406666666667
:1084F0006666E63F333333333333D33FF0B587B06B
:1085000001930EAB1B88060003930D9B0D00009397
:10851000019B02920C9F002B3CD0002F02D1009BAC
:10852000DB0737D528200FF05AFA040010300CF082
:1085300076FB029B1820258063800FF050FA05001F
:10854000009B08220593019B002103600C300497D7
:108550000FF093FA082204A9281D0FF072FA0E4BAF
:1085600002226B6100230399E36023626362336834
:108570000A43A560A2805B6821003000984700286C
:1085800006D020000CF070FA20000FF024FA034807
:1085900007B0F0BD0248FBE74745020016FCFFFFAD
:1085A00017FCFFFFDD23F0B59B000160CB580400F2
:1085B00043600B00F0338360E4235B00CB58E13170
:1085C000C3600023FF3101611900D1B03BAA9A18A2
:1085D00001335170102BF9D16A46EC210F3B521830
:1085E000C94813700E33195C01321170013BFAD285
:1085F000FA226B469B181A78F9216B465B181B7898
:10860000120213436A4605315218138001232700D2
:1086100000250493113301931437023300933A0079
:108620003BA9039502952B0026A8FFF73FFE2A00E1
:108630001EA96B1801355A70102DFAD101230A00BA
:10864000B24D0B700E33585D01321070013BFAD2FF
:108650008A7B4B7B120213434B82012326000025A9
:1086600004930733283601930C3300930395029546
:108670002B0032003BA8FFF719FE3D703D75013716
:10868000BE42FAD120000322002153300FF0F5F949
:10869000230020004E3300211D805D801D711D725E
:1086A000182258300FF0E9F92068F930FF3002F055
:1086B000E3FD822223689200981802F0DDFD8622F5
:1086C00023689200981802F0D7FD0022170026AB0D
:1086D00007933BAB089319AB1D70991801324F708B
:1086E000102AFAD1652179201B78894E1EAD2B7096
:1086F0006E82694468440FF0A4F9022360682B7508
:1087000007ABAB61AF830DF08EFE036829001B68D9
:10871000984706AB60681E800DF081FE05000A35A3
:10872000060000222900EB7F934200D8E1E0881880
:108730004078032800D0B7E0991C1F2900DCB8E07E
:10874000B6226B469B181B885432A3876B469B1836
:108750001B886068E3870DF066FE060014200FF0AA
:108760003EF9002305006B4A0361199210C00822EC
:1087700019A91A930FF065F9674BEB60B369002BE9
:1087800000D0B4E0B561E0680A2103681B6998472E
:108790000A2120690DF03FFC604F3B689C46002B8E
:1087A0007FD05F4A0025C02609926A460A95029644
:1087B00009AB03CB03C26046042123000122FFF76B
:1087C0009DFE584A0C950B926A4602960BAB03CB62
:1087D00003C21B21230008223868FFF78FFE524A8C
:1087E0000E950D926A4602960DAB03CB03C21B2178
:1087F000230007223868FFF781FE4C4A10950F923C
:108800006A4602960FAB03CB03C22A000121230064
:108810003868FFF773FE464A129511926A4602962F
:1088200011AB03CB03C22A00022123003868FFF7F3
:1088300065FE404A149513926A46029613AB03CB29
:1088400003C22A00072123003868FFF757FE3A4A7F
:10885000169515926A46029615AB03CB03C22A0001
:10886000082123003868FFF749FE344A189517920B
:108870006A46029617AB03CB03C22A0009212300E4
:108880003868FFF73BFE2E4B386819936B461A95F4
:10889000029619AA22CA22C3230001221C21FFF733
:1088A0002DFE200051B0F0BD885C12180132D2B20A
:1088B0003AE7A918EB184F1CBB4214D806AB18783E
:1088C0005B788870CB7033000A33995C023199541D
:1088D000DA7F0232DA773200336834329B6F290054
:1088E000300098472CE71878013BD870E4E72B61FB
:1088F00048E7022306AA032128000BF088FE00287F
:1089000000D01DE7E7E7C0467887020068870200CD
:1089100005F0FFFF818101001D450200E8240020D1
:10892000D1830100A3450200D9450200AD440200F5
:10893000D7440200CB460200E5460200FF46020093
:10894000874502000022024B84B01A7004B07047C1
:10895000AA270020012210B50F4C104B88B0200030
:108960001A7001F0F5FF0E4907A80CF092F90022E9
:1089700007A9019200921300200002F0E5F807A871
:108980000CF07AF9FA20C00000F018FD20000CF07D
:108990005BFF08B010BDC046D0210020AA270020F0
:1089A000D820002010B50400034B036040300CF0C9
:1089B000A5F8200010BDC0462C7C0200F0B585B0A3
:1089C0001F000AAB1B880600029115000393002FBD
:1089D0001BD028200FF003F86B4604001989039B75
:1089E000AAB200933B000CF029F8336821005B68C1
:1089F00030009847002806D020000CF035F8200001
:108A00000EF0E9FF024805B0F0BD0248FBE7C046A2
:108A100016FCFFFF17FCFFFF7FB51E4C1026200041
:108A200000F05EF9FA211C4D00961C4B01228900D2
:108A30002800FFF7C3FFFA21022289000096184B95
:108A40002800FFF7BBFF0023164D70202B700EF09F
:108A5000C6FF06002100FFF7A5FD134C2660FA268D
:108A600076002B78002B0ED1104903A80CF09DF84E
:108A70007D2203A90E4802F0C3F803A80CF03EF8CB
:108A8000300000F09BFC2068FFF756FC142000F03B
:108A900095FCE6E7E0200020B02100205589010088
:108AA00045890100AA270020DC200020D4200020D6
:108AB000D021002070B5104D280000F059F80F4C5F
:108AC0000F49220028000EF07FFF0E4D0E492800AE
:108AD00000F014FF22000D4928000EF075FF00F091
:108AE00093F90B4D0100280000F09AFE28002200A7
:108AF00008490EF069FF70BDE02000200020002032
:108B0000198B0100D8200020347C0200794C02002F
:108B1000D4200020FD4A0200CA23144A9B0010B54D
:108B2000C2501C330400C0180BF0E8FFD0239B0098
:108B3000E0180BF0E3FF20009130FF3001F06CFAF9
:108B400020006930FF3001F067FA2000F03001F0BA
:108B5000E3FD2000D03002F07DF92000643006F003
:108B6000BDFE201DFFF71EFF200010BDD8800200B3
:108B70001423F0B5040093B0009319221821043097
:108B800002F0BEFC2200250026006432B435132119
:108B900010001092B83606F0ADFE28000DF0D3F9A3
:108BA00000221E2130000CF054FE2000D03002F0D4
:108BB00071F92200F03211920621464A119801F013
:108BC000CFFD20000027012369301A0000971121F2
:108BD000FF3001F02DFA200091300097012302228E
:108BE0001A21FF3001F024FA2000B9301A230121A4
:108BF0000222FF3002F00AFA300001F029F8E422E4
:108C00005200A050300001F06DFAE6235B00E05006
:108C10000100E42220005200D130119BA25800959F
:108C2000FF3001F0ADFC2000E13029001C22FF30B4
:108C300002F094FD192320000F93013B0E93013B9A
:108C40000D93013B0C93013B0B93013B0A93013BBA
:108C50000993013B0893013B0793013B0693013BBA
:108C60000593013B0493013B0393013B0293013BBA
:108C70000193F930013B082200930721013BFF30AB
:108C80000CF008FECA239B00E018290003F00CFD3D
:108C9000D3239B00E0181D2102F07EFBDD239B0007
:108CA000E7501098277003210EF0C2FB230022002A
:108CB000200009499C33A0321C6011605760074AAC
:108CC00080305A610221012206F0CEFF200013B04D
:108CD000F0BDC046547C0200414702002B47020011
:108CE0000123F0B506788BB005001E4076D1030055
:108CF000D0331800029300F041FA00F067F9282001
:108D00000EF06DFE040010300BF089FF344B18207C
:108D100023600EF064FE0700324B0560082231002C
:108D20000C30089309960EF0A8FE08A9381D0822F9
:108D30000EF087FE2C4BA7607B611223E660A380B8
:108D4000266266622100029802F01AF8002805D017
:108D500020000BF089FE20000EF03DFE0123DD24F3
:108D60002A78224913432B700800A40000F006FC67
:108D70002F59002F32D100F047F8010005A800F06C
:108D80004FFD0BF062FD06000BF05FFDB1B20390EA
:108D900007A80BF0D0FE039B08A8190C0BF0CBFE24
:108DA00008AA07A906A80BF017FF08A80BF0A6FE53
:108DB00007A80BF0A3FECA239B00E81806AA029B93
:108DC00005A9009703F0CAFC06A80BF097FE05A8BA
:108DD0000BF094FECC239B00EB582B510BB0F0BD55
:108DE000FD030000B347020073470200002000208B
:108DF000BFF34F8F024B034ADA60BFF34F8FFEE79A
:108E000000ED00E00400FA05F0B58BB003AF1922C5
:108E1000154938000EF015FE0023144D05266B7120
:108E200080235B055B6E2C000093012301933100CE
:108E3000009807F0C5FD0800019907F03BFD0522E9
:108E4000009B56431B1A0093019B534301932B1B1A
:108E50005343FB181B5C013C6371054B9C42E6D1FC
:108E600002480BB0F0BDC046BE870200AB27002011
:108E7000A6270020F0B595B01822002106000EA804
:108E80000EF0FBFD13210EA80EF0D2FB03210EA85D
:108E90000EF078FC464B1B68002B00D10133DBB28F
:108EA0000093444A0123002109A807F04BF8424BE4
:108EB0009E4200D9002672B6404B64211D68404B8B
:108EC00030000593052407F07FFD604350302818DB
:108ED00006900A21300007F077FD0A2107F05AFEBC
:108EE000614350316918079130000A2107F052FEA2
:108EF000802661430024503169180891B601009B17
:108F0000002B52D004AD0027032C02D18026002470
:108F1000B6016B682B4A02936300D31800220192BA
:108F200058780299095C039119788C4610216046A3
:108F300001410398014204D001209040019901436E
:108F4000019101320633092AEAD1019B2A68D943EB
:108F50001D4B09011940029B934224D1312F22DC81
:108F6000002109A80EF0C7FCFA23139A0F99DB0021
:108F70001068014219D0013B002BF9D1FA230134CA
:108F800001377600E4B25B009F42BDD1043508ABE7
:108F9000AB42B8D1064B1B68002BB0D0009B013B05
:108FA000DBB20093ABE73143DBE7FFF721FFC046BD
:108FB0005C240020F0FF0000E703000004200020F4
:108FC0000D880200D7870200F01F0000F8B50023CB
:108FD000124C23600BF02BFC002808D00421200049
:108FE0000BF021FC002801D00D4B2360F8BD0122BD
:108FF000A12704250B4B0C491A602268FF0048602A
:109000004E68002EFCD0DE591202013D3243002D85
:10901000F5D1226001225A60E8E7C04658240020BA
:10902000ED5EBC0B00D00040FCD000400B4B70B597
:109030001C68002C10D0656D00F0AEFBA36C0029FD
:1090400001D1834206D820000BF024FC0449200003
:109050000BF00EFC2C00ECE770BDC0466424002031
:1090600084240020F0B593B007932A4B04AC1E680B
:10907000049005910692002E4AD0274B25886788D8
:109080001C6800230293002C2ED0636D23480393A9
:10909000A36C9AB2A36C1B0C99B2854214D12048E0
:1090A000824211D1002B01D0B9420BD1029B002B7F
:1090B00008D120000BF0EEFB1A4920000BF0D8FB82
:1090C00001230293039CDEE7002A01D09542F9D1E7
:1090D000002B01D0B942F5D120000BF0DBFB114988
:1090E00020000BF0C5FBEDE70F4BEB18012B0FD960
:1090F00010233A00009329000C4B08A80BF09EFCAB
:10910000336808A99B683000984708A80BF0ACFCAE
:1091100013B0F0BD6024002090240020FE03000066
:10912000FF0300008424002002FCFFFF6590010083
:1091300010B572B60B4B1C68002C08D020000BF049
:10914000A9FB0023E364084B2000E36310BD62B673
:109150005C200EF044FC5C22002104000EF08DFC2B
:10916000EFE7C0468824002000400020024B18781A
:10917000012318407047C046B1270020F7B506000C
:10918000FFF7F4FF051E33D11A4C2660FFF7D0FF1E
:10919000194B1A4918600BF06BFBFFF7C9FF184B0E
:1091A0001860184B4363184B8363206800280ED067
:1091B000C027164E2A00330015490097FFF7FEFB23
:1091C000009733002A0013492068FFF7F7FB0C20B3
:1091D0000EF005FC0023838083710F4B03600F4B5F
:1091E000836000F0F1FA01230D4A11780B431370EC
:1091F000F7BDC04660240020942400208424002071
:109200008C240020FC3F00205B4902006590010097
:10921000FF030000FE030000747C02002D9001009B
:10922000B1270020F7B506000D00170001930028B4
:1092300002D100242000FEBD0029FAD0FFF778FFFC
:10924000041EF6D0074B019A4363066045608760B1
:10925000054B002A00D0054BA363054920000BF005
:1092600007FBE7E7FC3F00202549020043490200D5
:1092700084240020024B1868434258417047C0467E
:1092800084240020002310B504499C006258002A61
:1092900001D00133F9E76050100010BD6C240020AC
:1092A000002310B5044A99008C58844201D0013340
:1092B000F9E70020885010BD6C24002010B5002470
:1092C000084BA200D058002802D003685B6898477A
:1092D0000134062CF4D1044B1B68002B00D120BFB5
:1092E00010BDC0466C24002084240020F8B5FFF790
:1092F0003DFF00281CD02B4D2C68E36CDA0718D5F5
:1093000002273B43E364284B1E680423F26C3000C1
:109310001343F364636BF3630BF0E2FA3000716C98
:1093200003F0EDFB2868C36C3B4201D003F021FC45
:10933000F8BD1E4F1E4E3A683068002A0AD12860D8
:109340001B0712D52C60FFF7B9FF3B68002BFAD042
:109350002B600AE0216DB94219D1616D002900D15D
:10936000110029602A688242EAD029688C42DFD045
:10937000336899420DD10F4B4B630F4B8B63200029
:109380000BF0AEFA2968626C4B6C200006E02A6094
:10939000E8E79C42F3D1002210004B6C03F06EFB17
:1093A000C6E7C046942400206824002084240020BE
:1093B0008C240020FC3F00205B49020070B50500B2
:1093C000FFF7D4FE002803D128000EF0D4F970BDB9
:1093D0000C4B1C68E36CDB0706D5FFF7A9FE0A4BB4
:1093E0001860002800D0040000F0D6F92D18A564FC
:1093F00020000BF04FFA054920000BF039FAFFF777
:1094000075FFE4E7942400206824002064240020F1
:10941000F0B51E4B1E4F1C683B6885B006000391DB
:10942000002B30D0FFF7A2FE00282CD0E36CDB0726
:109430000ED5FFF77DFE174B051E186008D00BF008
:1094400029FA154928000BF013FA2C00FFF74EFFFC
:10945000039B20001B043343A3640BF01BFA200082
:109460000E490BF005FA0E4B0024F318012B07D917
:10947000C0230093039A0B4B31003868FFF79EFA24
:10948000200005B0F0BD084CFAE7C0469424002047
:1094900060240020682400208424002090240020E0
:1094A00002FCFFFF6590010016FCFFFF10B5FFF7FF
:1094B0005DFE002809D0054C20680BF0EBF904494B
:1094C00020680BF0D5F9FFF711FF10BD94240020A0
:1094D00088240020F7B507000D0000282ED0FFF7E4
:1094E00045FE00282CD00724164E3068C36C1C4063
:1094F00007D0154A290038000BF0E3F900242000BA
:10950000FEBD03F01EFB02213268D36C19400191AD
:1095100003D003218B43D364F1E701242343D364B5
:109520002800B8473268D36C1900A143D164019C6C
:109530005B07E4D528000BF0FCF9E0E7034CDEE71D
:10954000034CDCE7942400203349020017FCFFFFA2
:1095500016FCFFFF020010B5014B12CB12C210BD6A
:1095600098240020034B1A68034B1A607E225A602D
:109570007047C046042000209824002070B5114E8A
:109580003278022A1AD081421AD90C1A072C17D91C
:109590000D00032305432B4012D172B60A4DD200B1
:1095A0005051AA1851608022A40812061443046086
:1095B00032780132327062B6180070BD0348FCE7A1
:1095C0000348FAE7B3270020A024002013FCFFFF84
:1095D00017FCFFFF70B5134C06002378124D002BCB
:1095E0000CD1124912482B70FFF7C8FF114B98425B
:1095F00002D11E20FFF73EFC0123237000242B78AC
:10960000A34209DD0C49E300C91830000BF0ABF9A7
:10961000002805D10134F2E71420FFF72BFC0020CD
:1096200070BDC046B2270020B327002000380020BC
:109630006028002017FCFFFFA024002010B50028A0
:1096400017D000220F4B19780F4B914215DD1C6883
:1096500084420FD25C6884420CD9041F2368002B1B
:1096600002DC1E20FFF706FC802322681B06134342
:10967000236010BD01320833E7E71E20FFF7FAFB35
:10968000F7E7C046B3270020A024002070B5051ED0
:1096900014DD0B4E0B4C3368002B02D020680DF00C
:1096A00029FFFA2120680024074B89008361C462E6
:1096B000694335600DF026FF200070BD0348FCE7CC
:1096C000B0240020E02400207597010017FCFFFF64
:1096D000F8B5114F06003D68002D0AD130200EF07C
:1096E0007EF9040006F060F90C4BA5612360E56289
:1096F0003C600B4D2B68002B09D110200EF06FF948
:1097000004000DF04BFF20002C600DF021FF300015
:10971000FFF7BCFFF8BDC046E02400205C840200D7
:10972000DC240020014B18687047C046B02400209C
:1097300070B50D4C2368002B03D00C4B1B68002B1D
:1097400002D10620FFF7C4FF20680DF018FF0200C9
:109750000749C3170D684E685219734120680A60A3
:109760004B600DF012FF70BDDC240020E0240020CF
:10977000B020002010B5FFF7DBFF0024054BA2004E
:10978000D058002802D003681B68984701340A2C7F
:10979000F4D110BDB424002010B5FFF7C9FFFA22A0
:1097A000034B920018685968002307F033FA10BD84
:1097B000B020002010B5FFF7BBFF024B18685968B6
:1097C00010BDC046B02000200B4B10B51B68040034
:1097D000002B03D0094B1B68002B02D10620FFF79A
:1097E00077FF0023064A99008858002801D00133EA
:1097F000F9E78C5010BDC046DC240020E024002096
:10980000B4240020002310B5044A99008C588442E7
:1098100001D00133F9E70020885010BDB4240020A6
:1098200010B50400002902D00B78002B03D1034BA4
:109830002360200010BD0BF068F9FAE7847C020079
:10984000F8B504000E00150000290AD00B78002B93
:1098500007D0002A05D0080097B20EF04EF98742D3
:1098600003D90B4B23602000F8BD681DFFF7B2FE43
:1098700020600BF0DBFA23682A005F802368310048
:10988000181D0EF0DEF823685D1900232B71EAE73E
:10989000847C0200014B03607047C046847C020058
:1098A00010B50548054C20600BF0C3FA044A054981
:1098B00020000EF089F810BD847C0200E424002012
:1098C00000200020FD4A0200084B73B51C6805000B
:1098D000002C0AD0010026680831082268460EF0E4
:1098E000B0F80CCD31682000884773BDE824002013
:1098F000014B03607047C0468C7C020010B5040029
:10990000002903D1044B0360200010BD0160080052
:109910000BF08FFAF8E7C0468C7C020030B5006887
:109920004488A1420CDA8588AA4209DA002907DBBB
:10993000002A05DB5443401800198371002030BD14
:109940000048FCE717FCFFFFF0B5070085B00E00EC
:109950001D00002921DD002A1FDD002B1DD0046819
:10996000638803938B4200DD0391A38802939342A3
:1099700000DD0292002306340193019B029A934278
:109980000ED029002000039A0EF05BF83B68AD1959
:109990005B88E418019B0133EEE7024805B0F0BD97
:1099A0000020FBE717FCFFFFF8B504000D001600D0
:1099B0001F00002901DB002A02DA0E4B2360F8BDEC
:1099C000100048430630FFF705FE20600BF02EFA2A
:1099D00023685D8023689E80002F06D03B00320004
:1099E00029002000FFF7B0FFE9E720000BF059F94C
:1099F000E5E7C0468C7C0200F7B506000D1E03D1DA
:109A0000244B03603000FEBD00200F000400010065
:109A100001903B78002B1AD03022524294469C444D
:109A20006246092A11D90A2B0AD1019B2418013355
:109A30000193A14200DA2100002004000137E8E789
:109A40000028FBD001340020F8E70120F6E70127C9
:109A5000019A09B212B230007F42FFF7A5FF390028
:109A60000A2033689A1D2C78002CCBD02300303B81
:109A7000092B08D8FB43DB173B4043431B19303B02
:109A80001F000135EFE7002FFBDB177001320F00DD
:109A9000F7E7C0468C7C0200F0B5040087B004A84C
:109AA00015001E000F00FFF755FD23685A889542E8
:109AB00035DA9B889E4232DA1F2F30D9059B0193FD
:109AC0009F422CDC05217943049BA0395B1801934C
:109AD0003300721D03920020019A127802922268CC
:109AE0002F185688BE420DDD91888B420ADAD219B2
:109AF000102707415E43029992190F407E1EB7411D
:109B00007F42977101300528E9D1019A0133013272
:109B10000192039A9342DED1002007B0F0BD0148C4
:109B2000FBE7C04617FCFFFFF7B5036807009D1D64
:109B30005B880E005A1A0192002919DD002499420F
:109B400003DB0BF0AEF8002013E03B689B889C42DF
:109B5000F9DAA919019A28000DF073FF019B310071
:109B6000E8180BF090F83B6801345B88ED18ECE7DF
:109B70000048FEBD17FCFFFF10B50548054C2060EE
:109B80000BF057F9044A054920000DF01DFF10BDE8
:109B90008C7C0200EC24002000200020794C020084
:109BA00010B5054C012120000BF037F9034A044998
:109BB00020000DF009FF10BDF0240020002000203F
:109BC000D74D0200074A10B50123904208D09842B1
:109BD00002D00023C20703D41E20FFF74BF9002355
:109BE000180010BDFFFF00000048704716FCFFFF83
:109BF00010B53220FFF73EF9004810BD16FCFFFFFC
:109C000082801422002310B541620F4C01000834F9
:109C100004600E240281123A837182720363838688
:109C200036310A78C360A243036143618361C36133
:109C300003620A70021DD38701224287034AC2636E
:109C400002004032137010BDAC7C02000100010024
:109C5000F0B5524D97B02B6806000593002B00D04D
:109C600088E006AC0B331C222121200001F006FA0B
:109C70000EAF0B231D2222210AA801F0FFF90B23AE
:109C80001B222321380001F0F9F908200DF0A7FE6E
:109C90000122059B110004900CF045FB3A21300095
:109CA0000CF0E9F900281CD0A38812AFBB80A3797F
:109CB000A268BB713A4B5C2012930E23E3561492B8
:109CC000A289BB73BA810DF08AFE04230193363357
:109CD00000933A00049B3100040002F029F82C6044
:109CE00048E0322130000CF0F4F900281BD0A388A2
:109CF00012AFBB80A379A268BB71294B5C20129381
:109D00000E23E3561492A289BB73BA810DF067FE4D
:109D1000042301932E3300933A00049B3100040086
:109D200002F098F9DBE73C2130000CF08DF90028B7
:109D30002BD0BB8812ACA380BB79BA68A371184B37
:109D4000A42012930E23FB561492BA89A373A28106
:109D50000DF045FE052307000293013B01933833C4
:109D600000932200049B310001F002FF0D4B2F6095
:109D700044371F600B4B094C1868002802D021683B
:109D80000BF0C9F9206817B0F0BD44200DF027FE94
:109D9000042204990400FFF733FFA0E7F424002015
:109DA0009C7C0200F8240020F0B56149C56885B0AC
:109DB0008D4254DA0300022236331B78134059D106
:109DC00004698C4264DA020036321278520768D491
:109DD000426901920200019E40328E426FDA010018
:109DE00036310978090774D4002B7DD1137802939A
:109DF000002B16D006000127011DCB8F363601330C
:109E00009BB2CB8703963678BC46374000D188E0BA
:109E10001D2B06D963469E43039B1E700023CB87F0
:109E200013700BF052F8434A0723904276D9424907
:109E3000043B8D4272DBC8220133920095426DDCF7
:109E4000023B8C426ADB013B944267DC019804339D
:109E5000884263DB0023904260DD06335EE0C82267
:109E6000002352009542ABDD030036331A780023FD
:109E70009207A5D4012306001F0036363278540815
:109E8000A7433C0002279C40BA432243327097E725
:109E9000C822520094429BDD0200363212785207EB
:109EA00096D406000122363633789F08BA439700CD
:109EB000042293431A003A433270012388E7C821F1
:109EC000019E49008E428FDD010036310978090775
:109ED0008AD40100012636310B78DF08BE430827FB
:109EE000F600BB4333430B701378032B00D97DE797
:109EF0000133DBB21370012B03D10021031DD9877D
:109F000074E7042B00D071E7020036321178033B6E
:109F10000B43137000230430C3870B33180005B0C4
:109F2000F0BD092B00D87CE7029BCF87013B77E788
:109F300070FEFFFFFF700200E0FCFFFF70B5C36919
:109F4000C1681A68451D8AB00400EB7F114226D013
:109F5000002B58D10123A2791A4238D00025A188BC
:109F6000A571022202A80AF064FEA31DDE7F012E65
:109F70002DD1FFF711FC2B00226A801A9941009025
:109F80000191019BA188AB4203D1214B009A9A42D7
:109F90003BD90123042206A80AF04BFE17E00B2B45
:109FA00001D80133EB77EB7F082B0DD90122A37980
:109FB00013420CD11343A371A188130006A80AF021
:109FC00038FEFFF7E9FB2062EB7F012BC2D90322A9
:109FD000A3791340012B14D1FFF7DEFB0023226A83
:109FE000801A9941994202D10A4B984209D9022319
:109FF000A279A1881343A3710522012306A80AF0C0
:10A0000018FE0AB070BD013BCCE733000322C2E763
:10A01000E7030000DB05000010B50400034B083324
:10A020000360FFF7EFFB200010BDC046E07C02009C
:10A03000F0B5070000250E00040085B002930AABBE
:10A040001B78083703930F4B019208330360858018
:10A0500085712900182238000DF00FFD039A310098
:10A0600038000DF0EAFA019B029AA380A31DE67165
:10A07000DA77631D25622000DD77FFF7A5FB20005E
:10A0800005B0F0BDE07C02000048704716FCFFFF01
:10A0900010B53320FEF7EEFE004810BD16FCFFFFA2
:10A0A000002310B50400838083710D4821640830BB
:10A0B00020608020C000A061E0612062E360200099
:10A0C000236163616362A362E36223636363A363E7
:10A0D000E363636411000AF0F6FF200010BDC04680
:10A0E000F87C0200F0B5514D97B02B68060005933F
:10A0F000002B00D088E00B331C22212106A80AACDB
:10A1000000F0BCFF0EAF0B231D222221200000F027
:10A11000B5FF0B231B222321380000F0AFFF0820DE
:10A120000DF05DFC0122059B110004900CF0FBF882
:10A130001D2130000BF0B6FF00281CD0A38812AF01
:10A14000BB80A379A268BB71394B602012930E23A8
:10A15000E3561492A289BB73BA810DF040FC05232B
:10A160000193183300933A00049B3100040001F07E
:10A17000A7FE2C6048E03C2130000BF0C1FF002816
:10A180001BD0A38812AFBB80A379A268BB71284BF8
:10A19000602012930E23E3561492A289BB73BA81F6
:10A1A0000DF01DFC05230193373300933A00049B07
:10A1B0003100040001F0F0FFDBE73C2130000BF040
:10A1C00043FF002829D0BB8812ACA380BB79BA68B2
:10A1D000A371174BA42012930E23FB561492BA8935
:10A1E000A373A2810DF0FBFB052307000293013B43
:10A1F0000193383300932200049B310001F0B8FC36
:10A200000C4B1F6044372F600A4B084A1B681068CC
:10A21000002B00D0436417B0F0BD48200DF0DFFBE9
:10A22000052204990400FFF73BFFA2E7F824002071
:10A230009C7C0200F424002082B0F0B50400EDB054
:10A240006420739372920DF096FA052210A8110003
:10A250000AF030FD984911A8FFF7CEFB192500221E
:10A2600021AB013D1A605A609A600C33002DF8D181
:10A270001922290013A80DF000FCA0680BF0E2FAE7
:10A28000FF210A90A06800F0E1FC8C4FA06800F06C
:10A290005FFB049507950995884B9F4203D0884B37
:10A2A0009F4200DBFDE0A0680BF0CEFAA56885496F
:10A2B0001AA8FFF7B5FA78221AA9280000F076FC50
:10A2C0001AA80AF01BFC00237C4F04930326099B69
:10A2D00060680133334009930AF08EFE0500606820
:10A2E0000AF091FE0022784B05929D420FDB01326D
:10A2F00005922A00C8320ADBAA22042192000591A5
:10A30000954204DC0596C82D01DC0222059200224C
:10A310000692984210DB012306930300C8330BDB3F
:10A32000AA2304329B000692984205DC032306937D
:10A33000C82801DC013B069310A80AF0B2FC634B6D
:10A3400000251E00089313ABEB5C012B05D172783E
:10A350003178FE3310A8FFF7E1FA01350236192DE6
:10A36000F1D16B4618229A5E6B4610A81421595EF3
:10A37000099BFFF7D3FA002F02DB049B0F2B07D9B1
:10A380000023A068009374301A0010A90AF099FC09
:10A390000026089B059A1B78934228D1089B069AB1
:10A3A0005B78934223D12C2308AAD218935D012B0A
:10A3B0001DD00C2207990CAD4A4328000B9221684E
:10A3C00000220AF0AAFE21A98C460B9A62441300CF
:10A3D00007CD07C32C2308AAD31801229A55079B3F
:10A3E0000133DBB20793049B0133DBB20493089B78
:10A3F000013602330893192ECBD164200DF0BBF93E
:10A40000079B643F3FB2182B00D845E71A0021A9EB
:10A410001AA80BF090F86A461DAB23CB23C21B6829
:10A4200013601A991B9A1C9B20680AF05EFEE5686F
:10A43000002D0CD0264912A8FFF7F2F91C231AAA06
:10A4400012A928000BF0BAFD12A80AF057FBA06869
:10A450000BF0FAF911A912A8A5680AF01AFC00225B
:10A460001C4B009212A901932800130000F00EFB70
:10A4700012A80AF001FCFA2080000DF07CF9A06817
:10A480000BF0E2F90A99A06800F0E0FB11A80AF0CD
:10A49000F3FB10A80AF0F0FB6DB0F0BC08BC02B0F2
:10A4A0001847002F03D0049B0F2B00D00EE7A068A5
:10A4B00000F04EFA0AE7C046ED8902008C3C00002D
:10A4C000D18AFFFF328A020058FDFFFF528A020044
:10A4D000478A0200DC050000F0B587B001930EAB9F
:10A4E0001B88060003930D9B0D000093019B0292B5
:10A4F0000C9F002B3CD0002F02D1009BDB0737D5EF
:10A5000028200DF06CFA040010300AF088FB029B42
:10A510001820258063800DF062FA0500009B082258
:10A520000593019B002103600C3004970DF0A5FA00
:10A53000082204A9281D0DF084FA0E4B02226B613B
:10A5400000230399E3602362636233680A43A560D2
:10A55000A2805B68210030009847002806D02000C8
:10A560000AF082FA20000DF036FA034807B0F0BD79
:10A570000248FBE75B51020016FCFFFF17FCFFFFE0
:10A5800070B58CB08360109B01604260C3600400B2
:10A59000184918000BF0DDFC051E14D001001C2228
:10A5A000103105A80DF04DFA6A4608AB43CB43C203
:10A5B0001B68136020680599069A079B0AF095FDB1
:10A5C00028000DF008FA0C4B186800280ED00B4A32
:10A5D00005AB059200220692C03202926A4622CB57
:10A5E00022C2230003220521FFF776FF20000CB0D2
:10A5F00070BDC046478A0200E824002039A201004D
:10A60000F0B5040085B0637A9C46002B04D120008D
:10A610000AF0AFFF05B0F0BDA37A266F01931023B7
:10A62000019AF35600259B1801229A402900F368ED
:10A6300003920293029BAB4231DDB268019B6A43F5
:10A64000D21873695200E77A9A1813785078E27931
:10A65000012F14D1571E3F1A18003B004243606F70
:10A6600052008218D2189379634500DD6346627BFD
:10A670001A4202D00123AB4019430135DAE7022F19
:10A6800005D1571EFB1A277A013F381AE6E7032F38
:10A69000E4D1277A013FFF1A03003800DEE71123D7
:10A6A000C943F356606C994023691940039B1943D1
:10A6B0000DF021F9A27B072AACD8637B0C495B0023
:10A6C0006373531CDBB290004158A373022A03D872
:10A6D00008000DF045F896E7064B200023630023A1
:10A6E0006363054BE462236414300CF00BFF91E7C5
:10A6F000247D020001A601005D55020010B5040092
:10A70000044B03600CF0F6FE200005F063F9200016
:10A7100010BDC0465C84020010B504000E4B083327
:10A720000360FFF76FF8200074300AF0A5FA2000EC
:10A7300060300AF0A1FA200058300AF0DFF920005A
:10A7400050300AF0DBF92000044B14306361FFF74E
:10A75000D5FF200010BDC046447D02007084020079
:10A76000F8B500250400324B8580083303608571FD
:10A77000143016000F0005F017F920002D4BE5628C
:10A78000636125645030FFF785F820005830FFF7EB
:10A7900081F820006030FFF7ABF820000423F25E60
:10A7A00033682667590009B274300AF083FA3368B7
:10A7B000226FE37173680126237210236581A780DD
:10A7C0002561D35691685918994204DD30009840AC
:10A7D00001330543F8E711230120D356D1685918F6
:10A7E000994206DD02009A40266901333243226114
:10A7F000F6E714200DF0F3F8226900212A43012323
:10A80000060005F09FFBFF23220063720133A38142
:10A81000002348326664A37320001370A366FEF71A
:10A82000D3FF0123A27920001343A371F8BDC046D2
:10A83000447D020070840200F0B5437A85B00400C4
:10A84000002B04D120000AF094FE05B0F0BD0122D7
:10A85000837A11009C461023066F0025F35603925D
:10A860006344994002912900F3680193019BAB4234
:10A870002CDDB26873696A4362445200E77A9A1821
:10A8800013785078E279012F10D1571E3F1A180023
:10A890003B004243606F52008218D2189379002B1C
:10A8A00002D0039BAB4019430135DFE7022F05D1EE
:10A8B000571EFB1A277A013F381AEAE7032FE8D11F
:10A8C000277A013FFF1A03003800E2E71123C9434A
:10A8D000F356606C994023691940029B19430DF0AF
:10A8E0000AF8667AB31EDBB2FC2B14D8FEF71AFF07
:10A8F0000B4B0500236300230A4863630A4BFF21C7
:10A90000E4622364704306F05FF8290041432000AD
:10A9100014300CF0F7FD637A012B00D995E791E72D
:10A9200073550200B60300005D5502001FB50123F8
:10A9300081881A0068460AF07CF9012303491A004D
:10A9400068460AF076F905B000BDC046FE03000077
:10A950001FB5030048331A780400002A0DD00022E6
:10A960001A70012381881A0068460AF062F90123EF
:10A9700004491A0068460AF05CF9200074300AF0B5
:10A9800090F91FBDFF03000010B548300378002B7D
:10A9900006D00378012B03D00121024809F0B9FF4A
:10A9A00010BDC046FF03000010B5012104000620C1
:10A9B00009F0AFFF064B984208D148342378002BAA
:10A9C00004D02378012B01D020BFF7E710BDC0468B
:10A9D00016FCFFFF70B50600141E19DB0500483594
:10A9E0002B78002B02D02B78012B13D100233000C1
:10A9F0001A007430FFF750F8002C07D033004A33A8
:10AA00001C80002407234C3634802B70200070BD3E
:10AA1000014CFBE7014CF9E717FCFFFF12FCFFFFBD
:10AA2000F8B517000A68050052880B00012A09D101
:10AA3000002118000AF0E6F8002201002800FFF7C4
:10AA4000C9FFF8BD002F19DD060048363278002A0C
:10AA500002D03278012A13D12A00002428005C3267
:10AA60001900148058300AF0A8F82B004A331F80D0
:10AA700003234C352C8020003370E2E70148E0E7E7
:10AA80000148DEE717FCFFFF12FCFFFF73B5079CD0
:10AA90000500002C1CDB060048363078002802D068
:10AAA0003078012816D106981BB2C0B20090280059
:10AAB00012B274300AF005F9002C07D02B004A338B
:10AAC0001C80002407234C352C803370200076BD79
:10AAD000014CFBE7014CF9E717FCFFFF12FCFFFFFD
:10AAE000F7B505000E00171E26DDFFF74DFF2B0002
:10AAF00048331C78E4B2002C20D133685B88012BEA
:10AB000009D1210030000AF07DF822000100280060
:10AB1000FFF760FFFEBD310001A80AF046F83A00D9
:10AB200001A92800FFF77CFF01A809F0E7FF280032
:10AB3000FFF73AFF2000EDE70148EBE70148E9E7BE
:10AB400017FCFFFF11FCFFFFF0B587B00D9C06005E
:10AB50000F0002920393002C20DBFFF715FF330058
:10AB600048331D78EDB2002D1AD1390005A80AF03E
:10AB700090F80C9B01940093029A039B05A9300066
:10AB8000FFF784FF05A80AF077F8002C03D0300007
:10AB9000FFF70AFF2C00200007B0F0BD014CFAE7D8
:10ABA000014CF8E717FCFFFF11FCFFFFF8B50400AC
:10ABB000171E1DDD060048363378002B02D033788F
:10ABC000012B17D12200E3795632013B1370230089
:10ABD0000025200054331D80503009F0EEFF230083
:10ABE0004A331F80022328004C3425803370F8BD7F
:10ABF0000148FCE70148FAE717FCFFFF12FCFFFFE2
:10AC0000F7B505000F00161E18DDFFF7BDFE2B007F
:10AC100048331C78E4B2002C12D1390001A809F0A5
:10AC2000C4FF320001A92800FFF7C0FF01A809F006
:10AC300065FF2800FFF7B8FE2000FEBD0148FCE7D5
:10AC40000148FAE717FCFFFF11FCFFFFFF2902D8BC
:10AC50004172002070470148FCE7C04617FCFFFF27
:10AC600013B5040004A80078009020000CF0B8FB95
:10AC7000002801D1207516BD0048FCE70EFCFFFF3F
:10AC800013B5040004A80078009020000CF090FB9D
:10AC9000002801D1207516BD0048FCE70EFCFFFF1F
:10ACA0007FB50D0011000F226A4404001E1E1170B2
:10ACB00015D0089B002B12DD012329000093FFF71C
:10ACC000DFFF002808D10090089B320029002000F7
:10ACD000FFF7C6FF002800D0024804B070BD02484C
:10ACE000FBE7C0460EFCFFFF17FCFFFFF7B50700B0
:10ACF0000D1E3ED00023022604690193002C34D09F
:10AD0000AA88A388534033422DD1324222D1A3686E
:10AD1000AA68934227D12B88002B02D022889A421E
:10AD200021D16B88002B02D062889A421BD1EB683C
:10AD3000E268934201D0002B15D17B68002B01D033
:10AD400020009847A2880C4B1343A380019B01333A
:10AD5000019308E0A968A0680BF0CAFA0028DAD1CC
:10AD6000AB883342D3D0646AC8E7019B2000002B34
:10AD700000DC0248FEBDC0460080FFFF17FCFFFF5D
:10AD8000F0B5060085B00D1E5CD001270469002CCB
:10AD900026D00221AA8800230A4202D0A3885B0899
:10ADA0003B40226829688A4214D1A068A968002B18
:10ADB0000ED00BF09DFA00280CD0EB68E2689342AD
:10ADC00008D1A3881AB2002A06DB1F4805B0F0BDDF
:10ADD0008842F2D0646ADAE75B045B0CA380F4E794
:10ADE00030692A880100031E07D135610123174904
:10ADF000684609F01EFF0020E8E71C88944206D24E
:10AE00005C6A1900002C0DD02300F6E723001C8893
:10AE1000944207D15F886C88A74203D85C6A190006
:10AE2000002CF3D1884209D10B88934204D805D174
:10AE300048886B88984201D96962D6E74B6A6B6291
:10AE40004D62D3E70248C1E716FCFFFFFD03000097
:10AE500017FCFFFF064B10B51A00040008322C3314
:10AE6000026083600830FEF71BFA200010BDC04668
:10AE70005C7D020008B4024B9C46083808BC604761
:10AE800055AE010008B4024B9C46083808BC604728
:10AE9000BB5902000C4A002311002C32083110B5B6
:10AEA0004360838183738260036143618361C383F1
:10AEB000016004000830FEF7E5F9044B1A68002A27
:10AEC00000D11C60200010BD5C7D0200E824002041
:10AED000F7B50E00012504690192002C36D02388B5
:10AEE00032889A4201D0002B23D1638872889A421B
:10AEF00001D0002B1DD1FEF739F90123002806D01F
:10AF0000C022A3881340C03B5A425341DBB2019A8E
:10AF1000934219D1A7883BB2002B15DB10223100D8
:10AF2000A0180CF08EFD40231F4204D020000AF030
:10AF30004DFD646AD1E7FEF719F90028F6D021002B
:10AF40000348FEF7C7FAF4E70025F2E72800FEBD44
:10AF5000CD59020008B4024B9C46083808BC604733
:10AF6000555B0200F0B587B001930EAB1B8806005D
:10AF700003930D9B0D000093019B02920C9F002BED
:10AF80003CD0002F02D1009BDB0737D528200CF0E6
:10AF900026FD0400103009F042FE029B1820258097
:10AFA00063800CF01CFD0500009B08220593019BAB
:10AFB000002103600C3004970CF05FFD082204A907
:10AFC000281D0CF03EFD0E4B02226B6100230399FD
:10AFD000E3602362636233680A43A560A2805B6812
:10AFE000210030009847002806D0200009F03CFDE1
:10AFF00020000CF0F0FC034807B0F0BD0248FBE76E
:10B000008F5B020016FCFFFF17FCFFFFF0B504008A
:10B01000160000258380164A164B85710260218137
:10B0200046810573186889B08C46A8421DD0124A23
:10B0300005950492C02202926A4604AB82CB82C27A
:10B0400023002A006146FFF78DFFC022094B0A4901
:10B05000186802926A46069106AB079582CB82C2B7
:10B0600023002A003100FFF77DFF200009B0F0BD6A
:10B07000A07D0200E8240020B95C020030B5002465
:10B0800003730123034D84710560818082734373D0
:10B09000846030BD9C7C020070B583790400DB07BE
:10B0A00002D580680CF097FCA3799B0702D5A068B5
:10B0B0000CF091FCA3795B0707D5A0230021144A6B
:10B0C000DB00D150A0680CF086FCA3791B0708D5E3
:10B0D000A568002D05D028000BF081F928000CF0A0
:10B0E0007AFCA379DB0605D5A068002802D00368A6
:10B0F000DB6898476023A2791A4205D0A06800282F
:10B1000002D003685B6898470023A360A37170BDF9
:10B1100000700040F7B50227037B04000D003B429E
:10B1200026D0012926D886793E40009614D1FFF713
:10B13000B3FF18200CF053FC0E230600E356182230
:10B14000009901930CF099FC019930000CF087FAFA
:10B15000A379A6603B43A371A3685A68002D04D06D
:10B160000025DB681A602800FEBD1B691A60FAE73B
:10B17000014DF8E7014DF6E716FCFFFF17FCFFFF56
:10B18000F7B50126037B040033422AD06123857979
:10B190001D4017D1FFF780FF18200CF020FC0E2374
:10B1A0000700E35618220093637B290001930CF0FB
:10B1B00064FC019A009938000CF03FFAA379A7606B
:10B1C0003343A3716023A279A0681A4202D00CF025
:10B1D00028F9FEBD436940681B681840431E98412A
:10B1E000F7E70148F5E7C04616FCFFFF70B5037BA3
:10B1F00004000D001B0713D50B4B994212D80AF01F
:10B20000DEFD03000020834209D1280006F040FC47
:10B21000064905F085FF011CA06801F021FD70BD05
:10B220000348FCE70348FAE7FF03000000C07F443F
:10B2300016FCFFFF17FCFFFF70B50425037B04001D
:10B240002B4214D083792B420DD1FFF725FF082024
:10B250000CF0C5FB0E210600615604F0F7FBA37944
:10B26000A6601D43A571A06804F016FC70BD0148DE
:10B27000FCE7C04616FCFFFFF7B50127037B04007F
:10B280003B4219D0102385791D4011D1FFF704FFEF
:10B2900028200CF0A4FB0E21A2883B0061560095EB
:10B2A0000600FEF7C5FE1022A379A6601343A37122
:10B2B000A06809F0C2FEFEBD0048FCE716FCFFFFD7
:10B2C00070B5037B05000E001B0714D5002914DBA5
:10B2D0000AF075FD041E12D1A86801F0D5FC0949D9
:10B2E000884202D0A86801F0D5FC3100A86804F0BB
:10B2F0002DFF200070BD044CFBE7044CF9E700244F
:10B30000F7E7C046204E000016FCFFFF17FCFFFFCA
:10B31000F8B51C00037B070015001B071ED500298C
:10B320001EDB002A1CDD002C1ADD0800B42900DD1C
:10B33000B420FA26B600B421704305F045FBEB0FAC
:10B3400068435D196D10641B74433100001905F0EA
:10B350003BFB01003800FFF7B3FFF8BD0148FCE7F5
:10B360000148FAE716FCFFFF17FCFFFF10B50124A8
:10B37000837941731C4004D080680CF003FA0020EC
:10B3800010BD6022134203D080680CF051F8F6E73C
:10B390000048F5E716FCFFFF70B5040000250C4BD4
:10B3A0000E000833858085710360210018300AF093
:10B3B00053FD2000210020300AF071FD054BA680CE
:10B3C000E5802572E5602561656120001C6070BD27
:10B3D000B07D0200FC2400208379DB0702D5C16028
:10B3E000002070470048FCE716FCFFFF8379DB076D
:10B3F00001D5C06870470148FCE7C04616FCFFFF56
:10B4000070B545690400002D22D0037A032B21D8A2
:10B41000FFF7ECFFA8622C200CF0E1FA2C220021AF
:10B4200005000CF02AFB002263695A6223699342EB
:10B4300008D1636923610020237A65610133237297
:10B4400070BD13005A6A002AFBD162695A62F2E7A2
:10B450000148F5E70148F3E717FCFFFF13FCFFFF86
:10B46000144B70B55A68144C002A03D000225A605D
:10B470000132A2601A69002A17D0002119618023C5
:10B48000DB000E4DE3582868012B0FD1A923DB0008
:10B49000E1584942FFF7A0FF2868FFF7B1FF2B688A
:10B4A0005A69074BE2500123A36070BDFFF794FF78
:10B4B000F9E7C046FC10004000100040FC240020CA
:10B4C0000405000003000069002809D00221054A94
:10B4D000D167426A1A611A7A013A1A72024B1960EC
:10B4E0007047C04604E100E000E100E010B500292B
:10B4F00003DB024B19600BF0DFFF10BD00250020BD
:10B5000070B504001E0004AB1D7804F017FA20008B
:10B510000E4B40302360FEF7BDF9230001364C335B
:10B52000013522001E701D730023E1214E32A364F9
:10B530006365138053809381D381013B2000636452
:10B540004902FFF7D3FF200070BDC0462C7C0200EB
:10B55000F7B580277F053D697C690822113C6C4363
:10B560000600210068460CF06CFA104B009A9A42D3
:10B5700019D000930023019379693000133969438E
:10B580000AF0A2FC019A009930000AF0B5FC2100F3
:10B5900030000AF099FC7969AB081339694322003D
:10B5A00030000AF09BFC0198FEBDC046FECA0000B8
:10B5B000F0B50D00ABB00D9200213022060012A8AC
:10B5C0000B930CF05AFA28000CF097FA431C0C93DA
:10B5D000102B00D9B7E00B9B202B00D9B3E029003A
:10B5E00030000AF0B6FC071E56D129000C9A12A8AA
:10B5F0000CF027FA0D990B9A16A80CF022FA80236A
:10B600005B051F695A693000113A7A435D690D92F2
:10B61000FFF79EFF0D9B30220833002104001EA877
:10B620000F930CF02AFA29001339794330000AF0FD
:10B630004BFC0F9B0B9300230C930E930C9BA3428C
:10B6400049DA0B9930221EA80CF0FBF912A91EA8AA
:10B650000CF049FA00282DD13D493000220010910C
:10B6600011940AF049FC6A460B9B099315AB23CB56
:10B6700023C223CB23C223CB23C23000149B1299B5
:10B68000139A0AF047FC01230E930B9B30330B9364
:10B690000C9B01330C93D1E710300B9A0D990CF0F1
:10B6A000C2F9040038000CF096F9002C9DD120005E
:10B6B0002BB0F0BD6A460B9B099321AB23CB23C271
:10B6C00023CB23C223CB23C230001E991F9A209B79
:10B6D0000AF020FCD9E7E5433021ED1725404D4322
:10B6E0000F9B5D190E9B002B1BD1B81E05F0E2F8D5
:10B6F000A0422AD016490134300022001091119442
:10B700000AF0FAFB6A46099515AB23CB23C223CB7B
:10B7100023C223CB23C230001299139A149B0AF040
:10B72000F9FB0D9930000AF0CFFB80235B055969C6
:10B730000C2363431339023379430D9A30000AF026
:10B74000CDFB0024B3E7034CB1E7034CAFE7C046A1
:10B75000FECA000017FCFFFF13FCFFFF70B50400DA
:10B76000A280FA22002308000C49920008312160CF
:10B77000A3716061E260A360638209490AF0E9FB9A
:10B78000051E09D0010020001031022212300CF0F9
:10B7900058F928000CF01FF9200070BDC87D020088
:10B7A000848A020030B50225837987B004002B42D9
:10B7B00004D1FDF767FDA3791D43A57120000AF0B0
:10B7C0000EFC00281CD06B46DD1C28000AF0FEFB96
:10B7D0002B78002B17D001A80AF0F6FB0321019A61
:10B7E000D3170B409B189B102382FDF7D5FFE3680E
:10B7F000A18818180123A0601A0002A809F019FAFC
:10B80000002007B030BD0122064B1A60064A51687D
:10B810000029FCD000215160044A126801920122E3
:10B820005A60DBE700C00040FCC0004008C5004093
:10B83000022802D10122014B1A707047B427002060
:10B8400070B5064C05002378002B04D1044801F0A4
:10B8500083FB01232370280070BDC046B52700205C
:10B8600031B8010070B50C0008F0E1FF002810D0DD
:10B870000023144DA40A2B7020000AF0D5FB0028E9
:10B8800003D00A200BF077FFF6E72B78002BFCD0D3
:10B8900070BD02210C4B0D4A99508021C90008004F
:10B8A0005D58002DFCD0A121C9005C501958002919
:10B8B000FCD0002199508021C9005A58002AFCD0A0
:10B8C000E6E7C046B427002000E001400405000080
:10B8D000F8B50C0015001E0008F0A9FF002811D0D3
:10B8E0000023174F3B703200290020000AF09AFB1A
:10B8F000002803D00A200BF03EFFF4E73B78002B32
:10B90000FCD0F8BD01210F480F4B8446195080210F
:10B91000C9005A58002AFCD080270022FF00964216
:10B9200007DD910068586050D9590029FCD00132D8
:10B93000F5E7002261465A50DA59002AFCD0E0E7C8
:10B94000B42700200405000000E0014008B4024BC9
:10B950009C46443808BC60472D600200FA21F8B5C7
:10B960000389C9000400594332480AF0D7FCFA2180
:10B97000890004F09FFF304F2081A17A38000AF03F
:10B98000CDFC23002600250022894C33A072A0366E
:10B990001A808C35317800232A22286809F061FF4B
:10B9A000002844D131781F235B22286809F059FF11
:10B9B00000283CD1317820235C22286809F051FF0F
:10B9C000002834D1317801232C22286809F049FF5E
:10B9D00000282CD1317801232D22286809F041FF5D
:10B9E000002824D1317801232E22286809F039FF5C
:10B9F00000281CD1A17A38000AF08BFC3178C3B240
:10BA00000E22286809F02DFF002810D1FA21238981
:10BA10008900594307480AF07CFC01230343DBB249
:10BA200031782A22286809F01CFF002800D003483A
:10BA3000F8BDC046E87D0200E07D02000EFCFFFF7D
:10BA400008B4024B9C46443808BC60475DB901000D
:10BA5000074B10B51A00040008323C3302604364FF
:10BA6000443009F0FEFA200009F021FA200010BD50
:10BA7000487E020008B4024B9C46443808BC60472C
:10BA800051BA010008B4024B9C46443808BC6047D8
:10BA900037600200F0B50425837989B004002B4299
:10BAA00004D1FDF7EFFBA3791D43A5712000903071
:10BAB000FFF766FB0025A8420FD12300A0331978B9
:10BAC00020000C2305AE00938C3033000122006867
:10BAD000FFF7E6F8051E03D0204D280009B0F0BDA1
:10BAE000B1883088CABA0A219446F2887388D2BADB
:10BAF00002923789728902AE89191F2652BA0A80CA
:10BB0000A17ADBBA4B4312B25B42C0BA03924843FC
:10BB1000DA173240D3185B11A361C31733401818EA
:10BB200063464B43D9173140C9186423029A49111F
:10BB30005B42FFBA21625F430399C8335A434B43C8
:10BB4000E2674011221DE061A7672000D36709F07A
:10BB500026FA2000443009F08BFABEE70EFCFFFF06
:10BB600008B4024B9C46443808BC604795BA0100B3
:10BB7000F7B51E00040008AB1B881500019309AB44
:10BB800000911A8831000AAB1F88FEF739F82000AF
:10BB90003A0031004430FEF783FA134B20001A00BC
:10BBA0003C336364230008322260009A8C331A60AD
:10BBB000AB8890308380AB79AA6883710B4BA989DD
:10BBC00003600E23EB56826022009C321180837347
:10BBD0002300019AA0331A800321FFF7C7FB20003E
:10BBE000FFF7BCFE2000FEBD487E02009C7C0200E8
:10BBF000F8B5FA260189B6000400714325480AF019
:10BC00008DFB310004F056FE234F2081A17A3800CD
:10BC10000AF084FB2500A0725835297800232A22D7
:10BC2000606C09F01EFE002832D1297810232B22E7
:10BC3000606C09F016FE00282AD1297801232D22F4
:10BC4000606C09F00EFE002822D1297801232E22F3
:10BC5000606C09F006FE00281AD1A17A38000AF0BB
:10BC600058FB2978C3B20E22606C09F0FAFD002857
:10BC70000ED12189074871430AF04BFB012303438E
:10BC8000DBB229782A22606C09F0EBFD002800D095
:10BC90000248F8BDB07E0200A87E02000EFCFFFF45
:10BCA00010B50400034B0833036009F000F92000CD
:10BCB00010BDC046107F02007FB5042583790400C3
:10BCC0002B4204D1FDF7DEFAA3791D43A5712000B4
:10BCD0004830FFF755FA0025A8420DD1230058330C
:10BCE0001978062302AE009301223300606CFEF740
:10BCF000D7FF051E03D00D4D280004B070BD0021F4
:10BD000004200222A37A30567156B25659435A4340
:10BD10004343DB002362D20023685242C900A26180
:10BD2000E1619B6A20009847E6E7C0460EFCFFFFF2
:10BD3000F8B50400150006AA168807AA0F00128895
:10BD40001900FDF75DFF0F4B676408332360230084
:10BD5000AA8848339A80AA79A9689A710A4AA88958
:10BD6000A2640E22AA5621652100543108809A73DC
:10BD70000023A371230058331E802000FFF738FFF3
:10BD80002000F8BD107F02009C7C020010B504006A
:10BD9000034B0833036009F064F9200010BDC0466E
:10BDA000A47F0200F0B507005C3787B00400397843
:10BDB00000231022806C09F054FD00283BD103269B
:10BDC0000F2502ABED180123397808220093A06CEF
:10BDD0002B00FEF765FF194B98422CD02B7833428D
:10BDE00003D06420FDF7EAFAEAE7FA262189144D28
:10BDF000B600714328000AF091FA310004F05AFDB0
:10BE000020813978A0231122A06C09F02AFD002896
:10BE100011D1A36C21890393714328003F780AF064
:10BE200078FA01231843C3B210223900039809F0AD
:10BE300018FD002800D0014807B0F0BD0EFCFFFF40
:10BE4000447F020070B50825837986B004002B4238
:10BE500004D1FDF717FAA3791D43A57120004C30DA
:10BE6000FFF78EF9051E0DD023005C3319780623E9
:10BE700004AE009301223300A06CFEF711FF051EF3
:10BE800003D00E4D280006B070BD642364213288B3
:10BE90004942D2BA53437288A363D2BA4A43626317
:10BEA0000E22B3886A445BBA13801BB24B43E36330
:10BEB000236820001B6A9847E4E7C0460EFCFFFF9A
:10BEC000F8B50400150006AA168807AA0F00128804
:10BED0001900FEF7E5F80D4BA76408332360230033
:10BEE000AA884C339A80AA79A9689A71084AA889C5
:10BEF000E2640E22AA5661652100583108801E8234
:10BF00009A732000FFF74EFF2000F8BDA47F0200C7
:10BF10009C7C0200F7B5FA250189204FAD00040092
:10BF2000694338000AF0FAF9290004F0C3FCA17A49
:10BF300020811B480AF0F2F92600636CA07200937E
:10BF40002189583633786943380001930AF0E1F9C2
:10BF500007230343DBB220220199009809F081FCFA
:10BF6000002818D1317810232222606C09F079FC66
:10BF7000002810D1A17A0A48656C37780AF0C9F90F
:10BF800080235B420343DBB223223900280009F0FF
:10BF900068FC002800D00348FEBDC046D87F0200E0
:10BFA000D07F02000EFCFFFF10B50400034B0833E6
:10BFB000036008F07CFF200010BDC04648800200EE
:10BFC000F0B50425837985B004002B4204D1FDF738
:10BFD00059F9A3791D43A57120004830FFF7D0F827
:10BFE000061E0DD0230058331978062302AD0093A6
:10BFF000A8222B00606CFEF753FE061E03D0144EE1
:10C00000300005B0F0BD1F200023EA5ED3170340C7
:10C010009B180222A95E5B11CA1702405218042124
:10C020006F5E5211F9170140C91949112B806A80BE
:10C03000A980A07A4343424341435B42E3612368C2
:10C040005242A26121629B6A20009847D8E7C0460D
:10C050000EFCFFFFF8B50400150006AA168807AA13
:10C060000F0012881900FDF7CBFD0F4B67640833F2
:10C0700023602300AA8848339A80AA79A9689A7114
:10C080000A4AA889A2640E22AA56216521005431C9
:10C0900008809A730023A371230058331E80200068
:10C0A000FFF738FF2000F8BD488002009C7C0200AA
:10C0B000F7B5FA2504000189134EAD00694330003D
:10C0C0000AF02CF9290004F0F5FB2700A36C20816D
:10C0D00000935C373B7881B26943300001930AF0EA
:10C0E00018F96022C3B20199009809F0BAFB002840
:10C0F00007D1397801236222A06C09F0B2FB002835
:10C1000000D00248FEBDC0467C8002000EFCFFFF4E
:10C1100010B50400034B0833036008F0A2FF2000B1
:10C1200010BDC046A48002007FB5082583790400B5
:10C130002B4204D1FDF7A6F8A3791D43A571200079
:10C140004C30FFF71DF8051E0DD023005C33197825
:10C15000062302AE0093E8223300A06CFEF7A0FD98
:10C16000051E03D00B4D280004B070BD0223F25E03
:10C1700096235B425A4362630021725E2000534360
:10C18000A3630423F25E96235343E36323681B6A8D
:10C190009847E8E70EFCFFFFF8B50400150006AA73
:10C1A000168807AA0F0012881900FDF779FF0D4BBA
:10C1B000A764083323602300AA884C339A80AA79A5
:10C1C000A9689A71084AA889E2640E22AA56616594
:10C1D0002100583108801E829A732000FFF768FF03
:10C1E0002000F8BDA48002009C7C020010B5040071
:10C1F000054B083303601C3008F080FC2000183029
:10C2000008F07CFC200010BDD0800200FF23F0B5B8
:10C210002C4D8DB02B7000230400694600880093DC
:10C2200002F0B0FC002802D16B469B782B70264EA2
:10C230003368DB68002B07D1002320881A0019001F
:10C2400009F069FF0DB0F0BD2B78032BF4D81F491E
:10C2500001A8FDF7E5FA336801A9DE6804A808F033
:10C26000A4FC04A9300009F0A3FE0027060004A8DE
:10C2700008F044FCBE421ED031002022103104A838
:10C280000BF0DFFB30000BF0A6FB297804ABC900F4
:10C290005918082202A80BF0D4FB20880123082299
:10C2A00002A909F038FF0137002804D12088084A84
:10C2B0000C2109F02EFF01A808F020FC002FBBD0B4
:10C2C000C0E7C0468420002010250020948A020088
:10C2D000FFFF0000F0B5837991B004005B071BD528
:10C2E000FDF75AFA00232269801A9941994203D135
:10C2F000F423FF3398420FD9A068002808D0364BAA
:10C300001D880AF08CF8036815221B6A29009847DB
:10C310000422A3799343A371A3799B0759D52F4D89
:10C320002B68DB68002B50D02D4B1B78032B4CD88F
:10C33000294B2C491B8804A80193FDF771FA2B683F
:10C3400004A9DE6808A808F030FC08A9300009F04C
:10C350002FFE070008A808F0D1FB02AB9E1D0823A2
:10C360003200338006A9073B019809F0D6FE002F62
:10C3700008D039002022103108A80BF062FB3800E9
:10C380000BF029FB164B32881B7806A9DE0008ABA0
:10C390009E1930000BF047FB002813D0082206A995
:10C3A00030000BF04EFB2B6804A9DD6805A808F0EF
:10C3B000FCFB202308AA05A9280009F0FFFD05A819
:10C3C00008F09CFB04A808F099FB0222A379934390
:10C3D000A37111B0F0BDC0469827002010250020A1
:10C3E00084200020948A0200F7B5089C0500019281
:10C3F000152923D8012007008F40244E37421DD035
:10C40000E97FCE181F2E40DC69182618B14211D8DA
:10C410000021A01CCEB2B34204D9019A565C465406
:10C420000131F7E722789A182270EA7F9B18EB77A0
:10C4300000202AE00878C8540139E7E72678013E51
:10C44000F6B2B34209D100230234D9B28E42EFD9F9
:10C45000019AD15CE1540133F7E7EF7F0120FF1827
:10C46000BF1B1F2F11DCB71CE719E87F2A18974262
:10C4700004D23878013720700134F6E7861B023E7B
:10C48000EE77019A280008F0C2F8FEBDFC002000FB
:10C4900070B50D0009F0C3FF04000368002D09D139
:10C4A0005B699847FA2080006843074904F002FA64
:10C4B000E08070BD9B6898478542F3D223682000D6
:10C4C0009B6898470500EDE771020000F0B5070092
:10C4D0001600A1B002C704006B4918A81D0009F09E
:10C4E00077FE331E03D030000BF007FB83B201222E
:10C4F00004920022039202920232019200933200CF
:10C5000018A93800FBF7D2FE23006049583318A859
:10C51000079309F05DFE2B1E03D028000BF0EDFA07
:10C5200083B201220492002203920292023201920B
:10C5300000932A0018A90798FBF7B8FE2300544976
:10C54000AC3318A8089309F043FE269B002B03D0B8
:10C5500018000BF0D2FA83B2012204920022039257
:10C560000292023201920093269A18A90898FBF7CA
:10C570009DFE631CFF33474918A8099309F028FE64
:10C58000279B002B03D018000BF0B7FA83B20122CF
:10C5900004920022601C03920292023201920093E4
:10C5A000279A18A9FF30FBF781FE23005533FF338C
:10C5B000394918A8099309F00BFE289B002B03D0DA
:10C5C00018000BF09AFA83B201220492002203921F
:10C5D0000292023201920093289A18A90998FBF757
:10C5E00065FE2300A933FF332C4918A80A9309F0EC
:10C5F000EFFD299B002B03D018000BF07EFA83B2CD
:10C6000001220492002218AD03920292023201929A
:10C610000093299A29000A98FBF748FE204B1B78C3
:10C620000B93002B2CD1079B12971393089B0DAFF4
:10C630001493631CFF331593099B1A4916930A9BA5
:10C640003800179309F0C4FD1D2149203B781022C2
:10C650002B707B8A12AE6B8206ABC918C0180BF028
:10C66000F0F906232B750B9B2068AB83AE6109F0B4
:10C67000DAFE036829001B6898470122084B1A70EC
:10C68000200021B0F0BDC046292A0000242A000065
:10C69000252A0000272A0000262A0000282A000058
:10C6A000B62700200A18000070B5002504000B4BC7
:10C6B0008580083385710360C1601830FDF7EAF8A2
:10C6C00020001C30FDF7E6F80123621CD377044AF2
:10C6D000A560656120001460A37170BDD080020068
:10C6E00010250020FA2130B585B005000123022273
:10C6F0008900684608F09DFA074C2068002809D098
:10C7000009F09FFD2988054B226819800223917941
:10C710000B43937105B030BD1025002098270020F1
:10C7200010B50C0007290FD8806809F078FE074B78
:10C73000195703685B6C984743425841044B404289
:10C740001840044BC01810BD0348FCE78C8A020057
:10C75000EA03000016FCFFFF17FCFFFFF0B5974C43
:10C760000D00A544040096AB1B78954908A80793D3
:10C770000692FDF755F8200029001C3008F01DFA3C
:10C78000904909A8FDF74CF88F490AA8FDF748F829
:10C790000CAE09AA08A90BA808F01EFA2A0030005E
:10C7A00011AD0BA908F018FA0AAA3100280008F008
:10C7B00013FA290008A808F000FA280008F09EF9EA
:10C7C000300008F09BF90BA808F098F9E020C000B1
:10C7D00000F0B8FB08200BF002F90700002100F080
:10C7E00097FA0C22A760002130000BF046F92B00CD
:10C7F00007CE07C3754B2900EB60002338002B617F
:10C8000009F0F6FDA06809F00AFE08220021059053
:10C8100012A80BF032F914200BF0E1F86C4B2A004F
:10C8200011930300C2CAC2C36A4B059FC3600023B1
:10C83000A43703613B68002B00D0B8E03860A068E3
:10C8400009F0F1FD08220021060012A80BF015F9ED
:10C8500014200BF0C4F8604B1193030086CD86C3FF
:10C860005E4BC36000230361336B002B00D0A0E05C
:10C870003063A06809F0D3FD08220021059012A8BA
:10C880000BF0FBF814200BF0AAF8554B11AD1193E7
:10C890002A000300C2CAC2C3524B059EC3600023D4
:10C8A000983603613368002B00D084E030600120AB
:10C8B00004AB1B7F04AA03430BA9137709F02FFCD9
:10C8C000A06809F0B4FD036847495B6A9847A0680F
:10C8D00009F0ADFD036845499B699847A06809F0D8
:10C8E000A6FD0021036800911E680A000B00B047F6
:10C8F000079B002B0AD0200009F0ACFC032805DDC3
:10C90000A06809F094FD0368DB68984706212000C1
:10C91000FFF706FF364B374A1B68A1680393364B77
:10C9200028001B6800250293344B0CAE1B68019352
:10C93000069B1B6804330093314B12681B68FFF79A
:10C94000C5FDA06809F06BFD036831009B6A98473C
:10C950002C4BA0680C93B58009F061FD0368310091
:10C96000DB6A98470621A06809F03EFC089A092175
:10C970009378A068043209F04AFCA06809F04FFDE2
:10C9800032210571A068FFF783FDA06809F047FD1B
:10C9900009F014FC0AA808F0B1F809A808F0AEF8EC
:10C9A00008A808F0ABF891239B009D44F0BD0361FB
:10C9B00044E703615CE7036178E7C046BCFDFFFF25
:10C9C000A08A0200AE8A0200B18A0200236102003E
:10C9D000E5C60100316102000DC201003F610200A5
:10C9E0006D6102004D61020009CA01003DCA0100EB
:10C9F0000C25002008250020082000200425002008
:10CA00000C2000200800100013B506226846FCF731
:10CA100017FF094B1C68002C0AD0694601A808F0D2
:10CA2000C4F8200001A909F033FC01A808F066F859
:10CA3000684608F063F813BD10250020002373B585
:10CA400001AE0C0031000500019302F09BF80028B4
:10CA500002D1B278064B1A70064B1868002806D02F
:10CA600061426141044BC9B21D8009F019FC73BDDC
:10CA7000842000201025002098270020002815D0B1
:10CA8000006041608260C360046145618661C76186
:10CA9000444604624C464462544684625C46C46226
:10CAA000644604636E46466374468463002A06D077
:10CAB000C46B043C043A25681560B442F9D18C6B10
:10CAC000A6464E6BB546002B06D0CC6B043C043B0F
:10CAD0001D682560B442F9D10C6BA446CC6AA3460C
:10CAE0008C6AA2464C6AA1460C6AA046CF698E6940
:10CAF0004D690C69CB688A680868496870470060AE
:10CB000041608260C360046145618661C7614446DB
:10CB100004624C464462544684625C46C462644685
:10CB200004636E46466374468463C46B043C0439F4
:10CB300025680D60B442F9D1C76986694569046901
:10CB40007047006041608260C36004614561866136
:10CB5000C761444604624C464462544684625C4663
:10CB6000C462644604636C46446374468463046927
:10CB70007047846BA646446BA546046BA446C46A02
:10CB8000A346846AA246446AA146046AA046C769CD
:10CB9000866945690469C3688268006841687047AE
:10CBA00010B5041E0CD00AF0A8FF431EE318A342E0
:10CBB00008D922781978013B21705A700134F6E7C0
:10CBC000014810BD0020FCE717FCFFFFF0B585B061
:10CBD00001900C1E2BD00023C217161A00934B1E77
:10CBE00056400393009B30005D1C0A21029503F020
:10CBF000D1FF039B49423031595530000A2103F0DF
:10CC0000E3FE47420600002F0FD1019B002B04DA00
:10CC10002D23009D029A0235A35400232000635562
:10CC2000FFF7BEFF380005B0F0BD0095DAE7014F11
:10CC3000F8E7C04617FCFFFF0268084B406810B5D4
:10CC4000C018C000101803009A4205D81C688C4216
:10CC500002D31800083BF7E710BDC046FFFFFF1FD7
:10CC600070B50D1C06000021281C03F0ABFF041E4C
:10CC700006D13000291C03F023FB2000756070BD35
:10CC80000048FCE717FCFFFF014B18687047C046DF
:10CC90001020002070B504000D0003F025FB616832
:10CCA0002000FFF7DDFF024B00201D6070BDC04675
:10CCB0001020002070B5002817D1114D2E68002ECD
:10CCC00011D108300AF08BFE066046600D4E04005C
:10CCD0003368002B02D10AF0BCF9306023682C6065
:10CCE0009B00F3586360286870BD0122064907481D
:10CCF0000B681340F8D1026043600A60F4E7C04655
:10CD00001825002024250020142500201C250020A3
:10CD1000002370B504000160436099420AD1064DBA
:10CD20002B68002B02D10AF094F9286023689B003D
:10CD3000EB586360200070BD24250020436810B5C7
:10CD40000400002B02D104480AF049FC6068036823
:10CD50001B69984710BDC046BC8A0200436810B5E5
:10CD60000400002B02D104480AF039FC6068036813
:10CD70009B69984710BDC046BC8A0200436810B545
:10CD80000400002B02D104480AF029FC6068036803
:10CD90005B6A984710BDC046BC8A020010B504000B
:10CDA00002F07AFB034B1B68002B01D02000984750
:10CDB00010BDC0462C250020F0B58BB0050001F059
:10CDC00027FD002000F00AFF036806001B69984752
:10CDD000336804009B6930009847336801905B6AB0
:10CDE000300098470300288810380B286CD803F0CF
:10CDF00057FD06486B6B6B656B6B6B716B83AF8814
:10CE00002000390009F0BBFC2200162358321678A6
:10CE10009C46143B3343A879697B1370012304AE0D
:10CE2000B3700023378032001F00AC44F0709818B4
:10CE300001330771062BFAD1002791723A00F319DA
:10CE40000137DA72062FFAD16346E91D3A0005A8C8
:10CE500073610AF0F6FD29000B2004AB3A000E3195
:10CE6000C0180AF0EEFD94346368A360A06800283F
:10CE70002AD0C36831009847A368002BF4D01B69FF
:10CE8000F3E720002E49AE8809F079FC2200022049
:10CE900058321378A9798343137004AB1E809970BC
:10CEA000A0346368A360A06800280DD0C36804A9FB
:10CEB0009847A368002BF4D01B69F3E75B69002B4C
:10CEC00002D0A91DA88898472900019809F09DFD66
:10CED0000BB0F0BD636E002BF6D0AE79A366A06EEA
:10CEE0000028F1D0C36831009847A36E002B01D110
:10CEF000636EF3E71B69F1E7012669460D27AB7BFB
:10CF0000EF575A071E40920FDB080A720B73062276
:10CF1000E91D04A80AF095FD6A46127A04AB1A725C
:10CF20006A46127B9F71DE715A722B0020000F330C
:10CF300007938C348030236804A99847C4E7C0461F
:10CF4000FFFF00000723D72802D9024B18600023F7
:10CF50001800704728250020014B18607047C04614
:10CF60002C2500201FB58022A323D205DB00D35837
:10CF70000820DB0700D405301C4B48221C4901F077
:10CF80007BFE00280AD080B2002807D1BFF34F8F64
:10CF9000184B194ADA60BFF34F8FFEE7002302A84F
:10CFA000029301330370154B1B68436009F047FA85
:10CFB000002802D0072005B000BD684609F03DFA00
:10CFC0000028F7D1694609F036FA0028F2D10C485A
:10CFD00001F082FE80B20028EDD10A4801F086FE01
:10CFE00080B20028E7D100F069FEE4E74364020064
:10CFF0003025002000ED00E00400FA05282500207F
:10D00000B9CD01009DCD010080B2002807D1BFF34A
:10D010004F8F034B034ADA60BFF34F8FFEE7704731
:10D0200000ED00E00400FA05024B0B6009231360D9
:10D030007047C046DF8A020010B50400002000F0EF
:10D04000CDFD03681B6998470300F3331C708623EA
:10D050005B00C05003000021044AFC335A61044ABB
:10D0600099615A62F4300AF04DFA10BD3B66020035
:10D070004D660200012110B5054A080001F062FE6C
:10D0800003005A1E93410B205B42184010BDC0465E
:10D0900039D00100F8B505000400AC356B68AB6011
:10D0A000A868002807D0C36821009847AB68002B08
:10D0B000F4D01B69F3E72600B0363568002D05D0A3
:10D0C0002F6928000AF087FC3D00F7E722000321C2
:10D0D00035605832137826008B43137023000A36CC
:10D0E0005C331D701F22290030000AF0C6FCF57762
:10D0F0002A361F22290030000AF0BFFCF577606E47
:10D10000002804D005690AF066FC2800F8E725002D
:10D11000983560662868002804D006690AF05BFC30
:10D120003000F8E72600A43628603568002D05D0C9
:10D130002F6928000AF04FFC3D00F7E7200035601A
:10D1400029000C226C300AF098FC2000074BE567A0
:10D15000A36729000C2280300AF08FFC2300044AC8
:10D160008C33903428001A602560F8BD2D660200CB
:10D170001F660200F0B593B0019000200C0000F093
:10D180002DFD03685B6A984700F096FE06AB002809
:10D190000ED000221A7105AA0692082218001A73EE
:10D1A0000AAA9A6000F056FF002803D013B0F0BD21
:10D1B00018711873002727732771019BBA331B78E6
:10D1C000BB4242D907237B431A000199BB32CB18DB
:10D1D000BB331B788A180292022B2ED1002506AE93
:10D1E000337BAB4223D9AB000393089BAA00995829
:10D1F00002980AF024F800281CD0B3689C46AB00C3
:10D200001900237B614402939A000868A368D050F8
:10D21000029B01332373337B5A1E954205D00C4881
:10D220001B1860469B001B580B6006AB1A73013736
:10D23000FFB2C2E70135EDB2D1E723792168029848
:10D240009A00013350502371F1E70020AEE7C04649
:10D25000FFFFFF3FF0B50A7804009BB00D000220ED
:10D26000012A08D04B88032A07D1A03B21499BB251
:10D2700010008B4207D91BB0F0BD203B1E4A9BB269
:10D2800003209342F7D81D4BAA8803209A42F2D874
:10D290000AAB009312AB02936A4600232600137177
:10D2A0001373B8363378002B1DD104AF1822002138
:10D2B00038000AF0E2FB2B7838003B7033783B7281
:10D2C0006B46FB606B883B82AB887B8209F0C9F8B8
:10D2D00002000320002ACED1012358342178100007
:10D2E0000B432370C7E769462000FFF743FF002880
:10D2F000DBD0C0E7603F0000E03F0000FF3F0000E0
:10D30000F0B59DB01E006B4604001A70581C062232
:10D31000229D0AF096FB002E2ED0328802AB1A8096
:10D3200072885A80B2889A80F288DA800CAB04AE98
:10D33000049314ABB36027000023B9373371337300
:10D340003B78002B1ED101223B78022708A913400D
:10D3500058000B784E60BB430343002D1AD12000C8
:10D36000323000789343104003430B70A38D0B8140
:10D37000E38D4B81238E17E01A4B029396239B0477
:10D380000393D3E731002000FFF7F4FE0028DAD042
:10D390001DB0F0BDA8799343104003430B702B8858
:10D3A0000B816B884B81AB8802AA68468B8109F0A0
:10D3B0006EF8031EECD00620082BE9D007D8013008
:10D3C000042BE5D00338072BE2D00730E0E7052037
:10D3D000112BDDD0044A01389342D9D0102BF4D15F
:10D3E000D6E7C046320064000232000013B504687C
:10D3F0000093A46813000A000149A04716BDC04667
:10D40000FFFF000037B506AC25780468019500934E
:10D41000246913000A000149A0473EBDFFFF000038
:10D42000F0B587B000260C0069464E806E461500A8
:10D430000CA90DAA0988127831800193002A1BD10A
:10D4400006004179F83691420BD9D700F75BAF421D
:10D450001BD130212032920012580132D27F0A4271
:10D4600015D16A462900200009F091F90623002809
:10D4700009D1180007B0F0BD6A462900200009F064
:10D4800086F9031EF5D00323F3E70132DBE7102111
:10D490000A4051424A41002002AEF3600CABB36037
:10D4A000184B01323580B270B0809C4207D100F039
:10D4B00095FB03681B69984709F064F90400310083
:10D4C000200009F068F9002382B29A42D1D01000FE
:10D4D0000533112ACDD00CD80133082AC9D06A46A9
:10D4E0002900200009F053F905230028C1D0023B90
:10D4F000BFE7054A05239042BBD0044A013390425E
:10D50000B7D0ECE7FFFF000003300000013400005B
:10D51000F0B5050099B008002E240C9100F0F8FB3E
:10D5200006ABE4181290220012A9012009F02DF98F
:10D53000002802D0032019B0F0BD23880C9A0B906C
:10D5400093830C9B0B9A1B7D934200D8C6E06B79AA
:10D550001D2B01D90720EEE70C9B9B690D930B9BBC
:10D560000D9A9B009C586369002B07D1638B002B9D
:10D5700004D1631CDB7F022B00D1AAE0200000F065
:10D58000C7FB23000026283312900E960D960F93AA
:10D590000F9B1B78B34221D9626AB3009F58342293
:10D5A00006AB9B1800221A700023002113AA9A18B8
:10D5B00001335170102BF8D1462206AB9B184A4A12
:10D5C00013A938001A8009F06CF9002803D07B6990
:10D5D0000D937B8B0E930136F6B2D9E76979A31CC4
:10D5E0001F31C9006918621CDB7FD27F08912100BE
:10D5F0002A31097800200791210029310978069104
:10D600000E9905910D990491217F0391218B02912F
:10D61000618B01916169009112A909F064FD0028F4
:10D6200000D087E76B7907001A00203292001F3381
:10D630005451DB005B5BE3836B7901336B71230037
:10D6400028331B78BB4244D98E239B00EB5C132B01
:10D6500000D97FE7626ABB009E580023180013A917
:10D660000B705A1801335070102BFAD11E4B30003A
:10D670004B8209F016F90D90002827D1300000F0F8
:10D6800047FB8E2189006A5C738B1E32FF32520089
:10D69000AA180292327F12900192328B12A9009244
:10D6A00072690D9800F084FB002800D042E78E21BB
:10D6B00089006A5C531CDBB26B541D337A32FF3332
:10D6C00092005B005651EB185B88F3830137FFB281
:10D6D000B5E70B980130C3B20B9332E72B790020EA
:10D6E00001332B7127E7C0460129000070B50C22D9
:10D6F0000D00002104000AF0C0F900232361024B51
:10D7000025602000E36070BDCF67020070B50500A2
:10D7100009F0E5F804000620002C1CD1280078222E
:10D72000210080300AF0A9F92800E93050222100B8
:10D73000FF300AF0A2F9280008222100F8300AF090
:10D740009CF9054B2822E81821000AF096F98E234F
:10D7500020009B00EC5470BD3A0200000048704766
:10D76000FFFF0000F0B597B00593036807AD1B6895
:10D770000491039311002B00060091C991C300246A
:10D78000D36821000C220CA8EB602C610AF075F91B
:10D7900022000B4B10940F9311AB1C70E118013455
:10D7A0004A70102CFAD15A820193059B2A000093EB
:10D7B00004990CAB3000039CA04717B0F0BDC046E5
:10D7C0000B6D020070B5FC30046C0500002C0DD10F
:10D7D00024200AF004F9064B44608361054B846001
:10D7E000C46004614461C46103602864286C70BD36
:10D7F000788202006083020070B5FC30C56B0400C3
:10D80000002D11D134200AF0EAF8084B85604360FE
:10D81000074B45610361074B0562C361064BC56257
:10D820008362064BE0630360E06B70BDA882020078
:10D8300098820200088302001883020028830200F5
:10D840007FB503791548002B22D0154E154C33783F
:10D850002000002B1CD102AD280009F048FA002856
:10D8600010D16B88592B0DD12B78AA88D91F01298B
:10D8700010D800920C4A2021200006F0F3F9012371
:10D88000337004E02022094920000AF03DF920000D
:10D8900004B070BD0092064AEDE7C046E88A020077
:10D8A000D7270020B72700200A8B0200028B020036
:10D8B000278B020010B50400024B08C009F0E2FA01
:10D8C000200010BD9882020010B50400024B08C071
:10D8D00009F0EDFA200010BDA882020070B5FC30FE
:10D8E000046C0500002C0DD124200AF078F8064BBA
:10D8F00044608361054B8460C46004614461C46119
:10D9000003602864286C70BD788202006083020086
:10D91000064B70B5040003604068002804D0056918
:10D920000AF059F82800F8E7200070BD18830200BB
:10D93000064B70B5040003604068002804D00569F8
:10D940000AF049F82800F8E7200070BDC8820200FC
:10D95000064B70B5040003604068002804D00569D8
:10D960000AF039F82800F8E7200070BD08830200AB
:10D97000064B70B5040003604068002804D00569B8
:10D980000AF029F82800F8E7200070BDAC810200F9
:10D99000064B70B5040003604068002804D0056998
:10D9A0000AF019F82800F8E7200070BDBC810200D9
:10D9B000064B70B5040003604068002804D0056978
:10D9C0000AF009F82800F8E7200070BDCC810200B9
:10D9D000064B70B5040003604068002804D0056958
:10D9E00009F0F9FF2800F8E7200070BDDC81020093
:10D9F000064B70B5040003604068002804D0056938
:10DA000009F0E9FF2800F8E7200070BD78820200E5
:10DA1000064B70B5040003604068002804D0056917
:10DA200009F0D9FF2800F8E7200070BD88820200C5
:10DA3000064B70B5040003604068002804D00569F7
:10DA400009F0C9FF2800F8E7200070BDB882020085
:10DA5000104B10B5083303600F4B0400C3608023E4
:10DA60000E4A5B00C250C018FCF748FE20000C4B69
:10DA7000B830E360FFF7ACFF2000AC30FFF798FF51
:10DA80002000A030FFF784FF20006C30FFF770FF0C
:10DA9000200010BD8C830200F08002007084020020
:10DAA000EC810200434AF0B50600C260A022424B5E
:10DAB000163608330360010000234282040032005E
:10DAC00085B0037183600374838235311370013232
:10DAD0009142FBD1802580222000AD00D201F37756
